:080019008040201008040201E0
:100181002020090000000000000000000000000025
:10019100000000000000000000000000000000005E
:0601A1000000000108004F
:10000300758920758DFD758BFDE4F587759850D244
:06001300AFD2ACD28E2238
:0B01CE00EF1FAC0670011E4C70F62203
:1000B200E4FEEFC4131313540124FF92A1EF25E0D1
:1000C200FFC2A00000D2A00EBE08E7E4FEEDC413FA
:1000D2001313540124FF92A1ED25E0FDC2A00000FC
:1000E200D2A00EBE08E7E4FEEBC41313135401249E
:1000F200FF92A1EB25E0FBC2A00000D2A00EBE0839
:10010200E7E4FEE52DC4131313540124FF92A1E585
:100112002D25E0F52DC2A00000D2A00EBE08E4C23B
:05012200A20000D2A2C2
:0101270022B5
:10012800752901120003E4FAEA90001993FD740995
:100138002AF8E6F4FB74192AF8E6F4F52DE4FF1220
:1001480000B27F0A7E001201CE0ABA08DB7A08EAFA
:10015800C3941050D1EA90001193FF74092AF8E66D
:10016800F4FB74192AF8E6F4F52DE4FD1200B27FC9
:090178000A7E001201CE0A80D6B5
:030023000201A82F
:0901A800C0E0C0D075D000C00019
:1001B1003098FDC29874092508F8A6990508E50844
:0601C100B42003750800E4
:0701C700D000D0D0D0E032DF
:03000000020026D5
:0C002600787FE4F6D8FD75812D02006D96
:10003200020128E493A3F8E493A34003F68001F2BB
:1000420008DFF48029E493A3F85407240CC8C333CF
:10005200C4540F4420C8834004F456800146F6DF9E
:10006200E4800B0102040810204080900181E47EAC
:10007200019360BCA3FF543F30E509541FFEE49393
:10008200A360010ECF54C025E060A840B8E493A35A
:10009200FAE493A3F8E493A3C8C582C8CAC583CA85
:1000A200F0A3C8C582C8CAC583CADFE9DEE780BE3D
:0101A7000057
:00000001FF
